:100000000C9486000C9498000C9498000C94980022
:100010000C9498000C9498000C9498000C940A0E80
:100020000C9498000C9498000C9498000C949800F0
:100030000C9498000C9498000C9498000C949800E0
:100040000C9498000C94DE0D0C9498000C9498007D
:100050000C9498000C9498000C9498000C949800C0
:100060000C9498000C9498000C9498000C949800B0
:100070000C9498000C9498000C9498000C949800A0
:100080000C9498000C9498000C9498000C94980090
:100090000C9498000C9498000C9498000C94980080
:1000A00019041D042104250429042D0431043504F8
:1000B00039043D045104550459045D047504690470
:1000C0006D04710475047504610465043A05440502
:1000D00059057305C00540064006D7054006ED05E5
:1000E00040064006400602064006170640062C065B
:1000F0005006C506CB07ED06CB0716073F0751078D
:10010000CB076307CB078207CB07AD0711241FBEC0
:10011000CFEFCDBFDFE3DEBF28E2A0E0B8E201C051
:100120001D92A33FB207E1F70E9469030C949B164E
:100130000C940000CF93DF93DC01662309F43DC0EB
:10014000442319F1E0ECF8E0808180648083262F5D
:1001500030E0121613068CF540E060EC78E0E3EC3A
:10016000F8E0ED01C40FD11D47FDDA958881EB0160
:100170008C8390819923ECF74F5F842F042E000C21
:10018000990B821793076CF318C0E0ECF8E08081BC
:100190008F7B808361508AF020EC38E0E3ECF8E05C
:1001A000ED01C60FD11D67FDDA958881E9018C83C9
:1001B00090819923ECF761509AF7DF91CF910895E0
:1001C000EF92FF920F931F93CF93DF9300D000D055
:1001D000CDB7DEB700E214E0FF24F394F801F68215
:1001E0006894EE24E1F8E582000069837A838B83CA
:1001F0009C8340E064E0CE0101960E949A000000DA
:10020000F801F58200C0F682E6822496CDBFDEBFFB
:10021000DF91CF911F910F91FF90EF900895BF92C2
:10022000CF92DF92EF92FF920F931F93CF93DF93C2
:100230001F92CDB7DEB789836B01B42E00E214E0C4
:1002400081E0F80186836894EE24E2F8E6826894FF
:10025000FF24F4F8F682000040E061E0CE01019650
:100260000E949A0040E06B2DC6010E949A00000097
:10027000F801F58200C0F682E5820F90DF91CF9100
:100280001F910F91FF90EF90DF90CF90BF90089556
:10029000EF92FF920F931F93CF93DF9300D000D084
:1002A000CDB7DEB700E214E0FF24F394F801F68244
:1002B0006894EE24E3F8E582000069837A838B83F7
:1002C0009C8340E063E0CE0101960E949A0000000A
:1002D000F801F58200C0F682E6822496CDBFDEBF2B
:1002E000DF91CF911F910F91FF90EF900895E0E083
:1002F000F4E080E5818380E2828380E88283E0EC21
:10030000F8E0808180628083808180838081806149
:10031000808380818F7B80838181846081838181E0
:100320008F77818381818C7F8183808181608083CD
:100330000895CF93DF9300D000D0CDB7DEB76983A7
:100340007A838B839C8344E0BE016F5F7F4F84E0A0
:100350000E940F012496CDBFDEBFDF91CF9108959B
:10036000FF920F931F93CF93DF9300D000D0CDB7B0
:10037000DEB79F70FF24F394F092260400E814E0A7
:10038000F801F68200009063A0E0B0E089839A83D0
:10039000AB83BC8340E062E0CE0101960E949A00EC
:1003A0000000F801F5822496CDBFDEBFDF91CF912A
:1003B0001F910F91FF900895682F70E0762F6627A8
:1003C0006160072E000C880B990B0E94480108956C
:1003D000CF92DF92EF92FF92CF93C42F6C01E12C6A
:1003E000F12C0B2EBFE0CC0CDD1CEE1CFF1CBA95D3
:1003F000D1F7B02D611105C061E070E080E090E0C0
:1004000004C061E070E080E098E00E94E0006C2FA2
:100410006770862F90E0A0E0B0E0072E74E1880FAF
:10042000991FAA1FBB1F7A95D1F7702DBC01CD0172
:100430006C63706C88680E94E000C701B6010E947E
:10044000E000CF91FF90EF90DF90CF900895882348
:1004500059F0E0E6F4E080E4858380E286838091D1
:10046000F1280E94DC010895E0E6F4E080E2858353
:1004700080E486838AE00E94DC01089590E19093F5
:100480006604803120F08FE08093660407C0E0E6C8
:10049000F4E09FE0968380958F7085830000E0E60E
:1004A000F4E080E18583000086830895893088F434
:1004B000883029F480E88093650486E003C090E8E2
:1004C00090936604E0E4F4E09EE09683880F8E70DB
:1004D00085830895882321F081E08093A504089501
:1004E00081E08093A604089582E08093A704089594
:1004F000811107C0E0EAF4E088E0858384E0868328
:100500000895E0EAF4E088E0868384E08583089536
:10051000809148048295817091E0892708958091A7
:10052000480485FB882780F991E089270895809108
:100530004804881F8827881F0895EF92FF920F9321
:100540001F93CF93DF93CDB7DEB72897CDBFDEBF24
:1005500000E414E080EFD80112968C93129781E0AA
:1005600011968C931197E0E2F4E0818394E39183F8
:1005700052E0518360E612966C93129748E04183F3
:1005800090E112969C9320E834E0D90111968C9367
:100590007EE0D80111967C930F2EF0E6EF2EF4E06A
:1005A000FF2EF02D70E8D70111967C9311977FE113
:1005B00011967C93119711966C9360EA74E013E0A6
:1005C000DB0111961C9311971CE011961C938683F6
:1005D00064E0658356834683D90115968C93D701D1
:1005E00016969C9396838DE890E20197F1F70000B0
:1005F00080E28583AAE1B1E41197F1F700C0868318
:1006000062E978EF8FEF9FEF0E94480162E978EF8F
:100610008FEF9FEF0E94480164E070E080E090E07F
:100620000E94480161E07AE080E090E00E94480189
:1006300082E092E2A0E0B0E08D839E83AF83B88732
:1006400081E090E0A0E0B0E089839A83AB83BC8333
:1006500044E0BE016B5F7F4F80E00E940F0143E0EA
:10066000BE016F5F7F4F81E00E940F0165E070E087
:1006700080E490E00E94E0006CE170E087E990E0A7
:100680000E94E0006BE070E080EE90E00E94E000ED
:1006900063EC7FE580E090E10E94E00061E070E0C3
:1006A00080E090E00E94E00060E070E0CB010E94FA
:1006B000E00040E060E08BE190E00E94E8012896D5
:1006C000CDBFDEBFDF91CF911F910F91FF90EF90D3
:1006D000089525E186E195E0215080409040E1F7C2
:1006E0000E94E4070E949D0D0E9477010E949D02D6
:1006F00025E186E195E0215080409040E1F70E949D
:10070000F70778940E944A0E0E948A030E94D90B30
:10071000A895F8CF3F924F925F926F927F928F92FF
:100720009F92AF92BF92CF92DF92EF92FF920F9380
:100730001F93CF93DF93CDB7DEB72897CDBFDEBF32
:1007400080916A28882309F47BC10F2EF6EFEF2EE3
:10075000FDE6FF2EF02D10E0B7018BE498E20E9439
:100760005F131F5F009731F484E0E80EF11C1C302A
:1007700099F762C1A12FB0E0AA0FBB1FAA0FBB1F40
:10078000AE50B249FD0101900020E9F73197EA1B14
:10079000FB0BFF27DC010D900020E9F71197A81B48
:1007A000B90BAE17BF0790F0BC016E0F7F1FFB01A6
:1007B00001900020E9F73197AF01461B570B5527F1
:1007C0004F5F5F4F8BE498E20E94421300914B28E9
:1007D0000023B9F0F12CE12C802F90E00E94391316
:1007E000892B31F4EE2DF0E0E55BF74D0083E394C7
:1007F000F394EF2DF0E0E55BF74D00810111ECCFB4
:1008000001C0E12CEE2DF0E0E55BF74D1082809108
:100810004B288F33C9F581E080930828812F90E021
:10082000FC013197EA30F10560F5E05BFF4F0C9475
:10083000281284E080930928FFC085E0809309286E
:10084000FBC088E080930928F7C08AE080930928DC
:10085000F3C083E080930928EFC08EE080930928DD
:10086000EBC080E180930928E7C082E180930928EA
:10087000E3C081E080930928DFC082E080930928EB
:10088000DBC010920928D8C010920828812F90E070
:10089000FC013197EC30F10540F5E65AFF4F0C941E
:1008A000281286E08093092822C087E080930928D7
:1008B0001EC089E0809309281AC08BE08093092824
:1008C00016C08CE08093092812C08DE0809309281F
:1008D0000EC08FE0809309280AC081E18093092827
:1008E00006C083E18093092802C0109209288091F4
:1008F0004B288823D1F090E040E0282F30E02053AF
:1009000031092A30310510F08D3231F4E42FF0E056
:10091000E55BF74D80834F5F9F5FE92FF0E0E55B7C
:10092000F74D80818111E9CF01C040E0E42FF0E074
:10093000E55BF74D1082EBE4F8E21486B081BB234F
:1009400009F462C0E1E0BD3209F0E0E0AE2FF0E072
:10095000E55BF74DE081EE2309F449C020E030E08B
:1009600040E050E060E070E080E090E001E00E9454
:10097000F612322E432E542E652E762E872E982E6A
:10098000F92F02E00E94F612A22EB32EC42ED52E0D
:10099000E62EF72E082F192F232D342D452D562DF9
:1009A000672D782D892D9F2F0E940F13A22EB32E15
:1009B000C42ED52EE62EF72E082F192F4E2F50E0DD
:1009C00040535109952F990F990B242F352F492FFB
:1009D000592F692F792F892F0E940F13AF5FEA2FAC
:1009E000F0E0E55BF74DE081E111C0CF08C020E009
:1009F00030E040E050E060E070E080E090E0BD3248
:100A000059F40E94E61208C020E030E040E050E0D7
:100A100060E070E080E090E02093002830930128AF
:100A2000409302285093032860930428709305286C
:100A30008093062890930728EBE4F8E2178E108243
:100A4000E0910928EE2309F4AAC28091082888239E
:100A500009F41AC180914A2881119DC28E2F90E01D
:100A6000FC013197E231F10508F00AC1EA59FF4F64
:100A70000C94281283E3ECE3FDE6ADE0B8E20190CC
:100A80000D928A95E1F7FCC080913A6D1F928F9389
:100A900080913B6D1F928F938FE69DE69F938F937E
:100AA0008DE098E29F938F930E947913CDBFDEBFB4
:100AB000E7C00E94B40B1F928F9388E89DE69F9336
:100AC0008F938DE098E29F938F930E94791380918A
:100AD000F2288F7D8093F2280F900F900F900F9047
:100AE0000F900F90CDC07091E7286091E828509149
:100AF000E9284091EA283091EB282091EC28909148
:100B0000ED288091EE2879836A835B834C833D8353
:100B10002E839F8388878D819E81AF81B8850097C2
:100B2000A105B105C1F04F932B812F932A812F93FB
:100B300029812F93BF93AF939F938F9381E99DE674
:100B40009F938F938DE098E29F938F930E947913E8
:100B5000CDBFDEBF95C08C818F938B818F938A81AF
:100B60008F9389818F938EE99DE69F938F938DE07C
:100B700098E29F938F930E947913CDBFDEBF80C010
:100B80008091EF289091F0289F938F9388EA9DE6BB
:100B90009F938F938DE098E29F938F930E94791398
:100BA0000F900F900F900F900F900F9069C0809151
:100BB000F22881701F928F9381EB9DE69F938F9314
:100BC0008DE098E29F938F930E9479130F900F907E
:100BD0000F900F900F900F9053C08091F1281F92AB
:100BE0008F938AEB9DE69F938F938DE098E29F937E
:100BF0008F930E9479130F900F900F900F900F908A
:100C00000F903EC00E945B089F938F9387EC9DE6F8
:100C10009F938F938DE098E29F938F930E94791317
:100C20000F900F900F900F900F900F9029C00E947F
:100C30000B089F938F9387ED9DE69F938F938DE095
:100C400098E29F938F930E9479130F900F900F90CB
:100C50000F900F900F9014C00E94A6089F938F933F
:100C600086EE9DE69F938F938DE098E29F938F93FE
:100C70000E9479130F900F900F900F900F900F908C
:100C800081E080934A2887C18E2F90E0FC0136973F
:100C9000EE30F10508F07FC1E858FF4F0C942812A0
:100CA000609000287090012880900228909003287E
:100CB000B0910428A0910528F0910628E09107281A
:100CC000262D372D482D592D6B2F7A2F8F2F9E2FA4
:100CD000205C3E40464152406109710981099109F9
:100CE00020343D494C4254406140710581059105D5
:100CF00011F008F044C08091F2288F7D8093F22893
:100D0000A090E728B090E828C090E928D090EA2881
:100D1000E090EB28F090EC280091ED281091EE285F
:100D2000262D372D482D592D6B2F7A2F8F2F9E2F43
:100D30000E94211309F42FC16092E7287092E828DD
:100D40008092E9289092EA28B093EB28A093EC28AF
:100D5000F093ED28E093EE282091E7283091E828E1
:100D60004091E9285091EA286091EB287091EC2895
:100D70008091ED289091EE280E94300A0CC180915C
:100D8000F22880628093F22806C100910028109119
:100D90000128C8018E539E4F87329240C0F4809143
:100DA000F2288F7D8093F2288091EF289091F0288F
:100DB0008017910709F4EFC00093EF281093F028F3
:100DC0008091EF289091F0280E94AD08E4C08091B6
:100DD000F22880628093F228DEC091E080910028A2
:100DE000811101C090E08091F22890FB80F98093FE
:100DF000F2288091F22881700E9427022091E72832
:100E00003091E8284091E9285091EA286091EB2838
:100E10007091EC288091ED289091EE280E94300A84
:100E20008091F2288F7D8093F228B5C080910028B0
:100E30008A30F8F08093F1288091F22881700E9426
:100E400027022091E7283091E8284091E928509125
:100E5000EA286091EB287091EC288091ED28909120
:100E6000EE280E94300A8091F2288F7D8093F2282C
:100E700092C08091F22880628093F2288CC0809189
:100E800000288A3040F40E941F0C8091F2288F7D48
:100E90008093F22880C08091F22880628093F228AB
:100EA0007AC0809100288A3040F40E949E0C809184
:100EB000F2288F7D8093F2286EC08091F2288062A4
:100EC0008093F22868C00091002810910128C80181
:100ED00088579C4E8131974278F4C8010E941208CD
:100EE0008091EF289091F0280E94AD088091F2281F
:100EF0008F7D8093F2284FC08091F228806280938A
:100F0000F22849C00091002810910128C801885199
:100F10009C4F813D9740D8F4C8010E94FE07209164
:100F2000E7283091E8284091E9285091EA2860911B
:100F3000EB287091EC288091ED289091EE280E948A
:100F4000300A8091F2288F7D8093F22824C080910E
:100F5000F22880628093F2281EC000910028109130
:100F60000128C801805D9A4881369A4E78F4C801FC
:100F70000E9499088091EF289091F0280E94AD0876
:100F80008091F2288F7D8093F22805C08091F2280D
:100F900080628093F22810920928109208282896DF
:100FA000CDBFDEBFDF91CF911F910F91FF90EF90EA
:100FB000DF90CF90BF90AF909F908F907F906F9079
:100FC0005F904F903F900895E0E6F0E0808180834D
:100FD0008BE08183828181608283E0EEF5E0128282
:100FE0001382E0E0F1E080818A608083089580E0F0
:100FF0000E94780280E00E949E0C0895BC016095DA
:101000007095E2E0F0E1908191FDFDCF86EE90E0F9
:101010000E943D16089586EE90E00E943816809555
:1010200090950895AF92BF92CF92DF92EF92FF9288
:101030000F931F93CF93DF93EC012091E72830911A
:10104000E8284091E9285091EA286091EB287091B6
:10105000EC288091ED289091EE28A12C0F2EF1EE36
:10106000BF2EF02D0F2EF5EFCF2EF02D0F2EF5E029
:10107000DF2EF02DE12CF12C00E010E00E9489120F
:10108000BE0160957095E2E0F0E1908191FDFDCFA9
:10109000822F90E0880F991F82579F4F0E943D1624
:1010A000DF91CF911F910F91FF90EF90DF90CF9044
:1010B000BF90AF900895AF92BF92CF92DF92EF9220
:1010C000FF920F931F932091E7283091E8284091D9
:1010D000E9285091EA286091EB287091EC288091E2
:1010E000ED289091EE28A12C0F2EF1EEBF2EF02DC1
:1010F0000F2EF5EFCF2EF02D0F2EF5E0DF2EF02D79
:10110000E12CF12C00E010E00E948912822F90E087
:10111000880F991F82579F4F0E943816809590958F
:101120001F910F91FF90EF90DF90CF90BF90AF9005
:101130000895BC0160957095E2E0F0E1908191FD29
:10114000FDCF8CE890E00E943D1608958CE890E079
:101150000E9438168095909508952F923F925F9245
:101160006F927F928F929F92AF92BF92CF92DF92B7
:10117000EF92FF920F931F93CF93DF93CDB7DEB71C
:101180002E97CDBFDEBFBC01990F880B990B0E9433
:10119000481020E030E040E251E40E94A50F6D834A
:1011A0007E838F8398872091E7282D879090E82869
:1011B0008090E9283090EA282090EB285090EC2885
:1011C0006090ED287090EE28A12C0F2EF1EEBF2E2E
:1011D000F02D0F2EF5EFCF2EF02D0F2EF5E0DF2E98
:1011E000F02DE12CF12C00E010E0392D482D532D8D
:1011F000622D752D862D972D0E9489122E872D85A3
:10120000392D482D532D622D752D862D972D2F3F6D
:101210003B4A42445640614071058105910509F001
:1012200018F41E851F5F01C01E852E85822F90E059
:10123000880F991F82579F4F0E943816809590956E
:10124000BC01990F880B990B0E94481020E030E0F8
:1012500048EC52E40E94A50F69837A838B839C83B8
:10126000812F90E0880F991F82579F4F0E94381658
:1012700080959095BC01990F880B990B0E9448109E
:1012800020E030E048EC52E40E94A50F29813A8129
:101290004B815C810E94330F20E23CEB4EEB5CE41F
:1012A0000E94A50F69877A878B879C87A12C0F2EB8
:1012B000F1EEBF2EF02D0F2EF5EFCF2EF02D0F2ECD
:1012C000F5E0DF2EF02DE12CF12C00E010E02E8572
:1012D00030E040E050E060E070E080E090E00E94AC
:1012E0002E12A22EB32EC42ED52EE62EF72E082FA8
:1012F000192F2D85392D482D532D622D752D862DB5
:10130000972D0E9418130E9483109B01AC016985E0
:101310007A858B859C850E946E1129813A814B814B
:101320005C810E94340F2D813E814F8158850E943F
:10133000340F6B017C019B01AC0160E070E080E444
:1013400091EC0E94330F4B015C0120E030E0A901D9
:101350000E943611882384F020E030E040E450E41D
:10136000C501B4010E94A50F0E9417106983603166
:1013700020F08FE0898301C0198289810E943E029A
:10138000E9816E2F70E0CB01880F991F680F791FDC
:10139000072E000C880B990B0E944810A70196019C
:1013A0000E94340F20E030E040E450E40E94340F0B
:1013B0009B01AC0160E070E088EC91E40E94330F87
:1013C0006B017C0120E030E0A9010E9436118823E6
:1013D00074F18CE890E00E94381680959095BC01DD
:1013E000990F880B990B0E94481020E030E048ECE0
:1013F00052E40E94A50F20E030E048EC51E40E9446
:10140000340F20E030E040E855E40E946E1120E007
:1014100030E44EE455E40E94A50FA70196010E9416
:101420006E110E94DB110E941710CB0102C080E0F8
:1014300090E00E94B0012E96CDBFDEBFDF91CF912C
:101440001F910F91FF90EF90DF90CF90BF90AF90E2
:101450009F908F907F906F905F903F902F90089516
:101460002F923F924F925F926F927F928F929F92B4
:10147000AF92BF92CF92DF92EF92FF920F931F93A2
:10148000CF93DF93CDB7DEB72C97CDBFDEBF2983D7
:101490003A834B835C83862E7D838C87992E2F3FE6
:1014A00005E5300701E2400703E8500761057105D3
:1014B0008105910509F048F580E08B87122FF32E06
:1014C000E42ED52EC72EEB85EF5FEB876E2E212FF6
:1014D0003F2D4E2D5D2D682D7C2D8C85992D0E2F49
:1014E0000E94F612222E332E442E552EB62FA72FF1
:1014F000F82FE92F2F3F35454142534861057105CB
:101500008105910501F3F8F20BC029803A804B80E8
:101510005C80B62FAD81FC85E92F612C712C1B8678
:101520000F2EF0ECAF2EF02D0F2EFEE0BF2EF02D83
:101530000F2EF6E1CF2EF02D6894DD24D1F8E12CAA
:10154000F12C00E010E0222D332D442D552D6B2F72
:101550007A2F8F2F9E2F0E948912A22EB32E150153
:101560008FEF281A380A21E030E040E050E060E0D8
:1015700070E080E090E0062D0E94F6120E94831039
:101580006B017C011B858E82092DB10180E090E00A
:101590000E9446104B015C0129813A814B815C819C
:1015A0006E817D818C85902F0E948310A50194010E
:1015B0000E94A50FA70196010E946E112B013C010C
:1015C0009B01AC01C501B4010E946E1124EA33E90C
:1015D00046E55FE40E94A00F18164CF088E128163B
:1015E000310448F08E801B87902E1E820DC08CE443
:1015F0002816310420F4EFEF2E1A3E0AC6CF8E8053
:101600001B87902EE1E0EE838091F22880FD33C0AD
:101610000E940B08392F282F990F990B492F592F0A
:10162000692F792F892F01E00E94F6122F833887C6
:10163000B42FA52FF62FE72F89879A8702E00E9403
:10164000F612A22EB32EC42ED52EE62EF72E082F7C
:10165000192F2F8138854B2F5A2F6F2F7E2F898579
:101660009A850E940F133F514A405A4F6F4F7F4F48
:101670008F4F9F4F08C020E031EE45EF55E060E00E
:1016800070E080E090E00E9483109B01AC01C301F8
:10169000B2010E94A50F20E030E040E85FE40E9424
:1016A0006E110E943B110E9499014B856E81C10110
:1016B0000E94E80129813A814B815C81682D7D81FE
:1016C0008C85992D211507E8300703E9400703E0D1
:1016D0005007610571058105910531F128F1A0E000
:1016E000B22F742E652E572EAF5FEA2FF0E0EE0F6B
:1016F000FF1FEE0FFF1FEE0FFF1FEA5DF149A080F5
:10170000B180C280D380E480F580068117812B2FC1
:101710003A81472D562D682D752D8C85992D0E9467
:10172000211309F008F701C0A0E08A2F0E94560299
:101730008091EF289091F0280E94AD082C96CDBFA3
:10174000DEBFDF91CF911F910F91FF90EF90DF905F
:10175000CF90BF90AF909F908F907F906F905F9051
:101760004F903F902F9008952091F22823FB8827D7
:1017700080F990E02091F22822FD03C020E030E0C3
:1017800002C022E030E0822B932B2091F22824FD2E
:1017900003C020E030E002C024E030E0822B932B35
:1017A0002091F22825FD02C020E001C028E0822B14
:1017B00008950E9488029091F22880FB92F99093FC
:1017C000F2280E948F029091F22880FB93F9909367
:1017D000F2280E9497029091F22880FB94F990934E
:1017E000F2280E94B40B882361F08091F228826075
:1017F0008093F22881E00E946A0281E00E947802D0
:101800000BC08091F2288D7F8093F22880E00E94A7
:101810006A0280E00E94780280910A2890910B2849
:10182000019680930A2890930B288115944030F0FC
:101830000E94740210920A2810920B2808956F9249
:101840007F928F929F92AF92BF92CF92DF92EF9250
:10185000FF920F931F93CF93DF93CDB7DEB72897F7
:10186000CDBFDEBFE091E7287091E8286091E928BC
:101870005091EA284091EB283091EC282091ED28F6
:101880009091EE28E9837A836B835C834D833E835A
:101890002F8398879E012F5F3F4F7901082F10E01B
:1018A000000F111F000F111F000F111F045C1F4FAD
:1018B0004E0139E0830E911CA82EB12CF7016191E5
:1018C00071917F01C8010E943D160E5F1F4FE81401
:1018D000F904A1F76091EF287091F0288501000FBD
:1018E000111FC801885D9F4F0E943D168091F2280C
:1018F00080FB662460F8712CB30160957095C80177
:101900008C5E9F4F0E943D166091F12870E0C801E7
:10191000805090400E943D162896CDBFDEBFDF91DB
:10192000CF911F910F91FF90EF90DF90CF90BF90DC
:10193000AF909F908F907F906F9008958F929F921D
:10194000AF92BF92CF92DF92EF92FF920F931F93CD
:10195000CF93DF93CDB7DEB72897CDBFDEBF082F7B
:1019600010E0000F111F000F111F000F111F045C6A
:101970001F4F9E012F5F3F4F79014E0139E0830ECB
:10198000911CA82EB12CC8010E943816F701819332
:1019900091937F010E5F1F4FE815F905A1F78501AF
:1019A000000F111FC801885D9F4F0E9438167C01EF
:1019B000C8018C5E9F4F0E9438166C01C801805090
:1019C00090400E943816982EA980BA800B811C8105
:1019D000BD81AE81FF8188842A2D3B2D402F512F60
:1019E0006B2F7A2F8F2F982D205C3E40464152401E
:1019F000610971098109910920343D494C425440E3
:101A0000614071058105910509F060F425E6E21653
:101A1000F10444F43EE3E3163EEFF3061CF089E0E4
:101A2000891510F11092E7288AEC8093E8288AE95A
:101A30008093E9288BE38093EA281092EB28109298
:101A4000EC281092ED281092EE2888E39FEF809307
:101A5000EF289093F0288091F2288E7F8093F228CF
:101A60008AE08093F12821C0A092E728B092E8286C
:101A70000093E9281093EA28B093EB28A093EC2870
:101A8000F093ED288092EE28E092EF28F092F02873
:101A900091E0CD20C09409F490E08091F22890FB71
:101AA00080F98093F2289092F1288091F228817039
:101AB0000E9427022091E7283091E8284091E928E8
:101AC0005091EA286091EB287091EC288091ED28E4
:101AD0009091EE280E94300A2896CDBFDEBFDF919C
:101AE000CF911F910F91FF90EF90DF90CF90BF901B
:101AF000AF909F908F900895FC0124AD85AD30E0AC
:101B000090E0019628173907A1F084AD811103C038
:101B100095AD9B3389F085ADDF01A80FB11D6C93A6
:101B200085AD8F5F85AF85AD8C3328F015AE81E034
:101B3000089580E0089581E00895E0E4F4E081E014
:101B400081838683ADE8B0E21197F1F700008583C9
:101B5000E0E0F8E02EEE30E02087318797819F7338
:101B600097839781906297839781977F97839781D7
:101B700093609783A0E0B4E011968C93119782E074
:101B800012968C938681897F868380E885838681FF
:101B9000806C8683E0E0FAE080818E708083118221
:101BA00083818E7F83838DE491E086A397A38285D2
:101BB0008160828780818160808308951F920F9267
:101BC0000FB60F9211242F933F934F935F936F9310
:101BD0007F938F939F93AF93BF93EF93FF93E0E037
:101BE000F8E0608184818068848389EA98E20E94B9
:101BF0007C0DFF91EF91BF91AF919F918F917F915C
:101C00006F915F914F913F912F910F900FBE0F9069
:101C10001F9018951F920F920FB60F9211248F9359
:101C20009F93AF93BF93EF93FF93EBE6F8E294ADEE
:101C300085AD9817F9F08091040885FF1BC094AD1D
:101C400085AD9817A1F0DF01E4ADF0E0E559F74D5F
:101C50009081DC968C91DC978F5FDC968C93DC977F
:101C6000DC968C918C3320F01092A72801C090E074
:101C700090930208E0E0FAE0838581608387FF911A
:101C8000EF91BF91AF919F918F910F900FBE0F90E9
:101C90001F901895CF92DF92EF92FF920F931F93B0
:101CA000CF93DF9300D0CDB7DEB780916A28811142
:101CB00066C0F894E9EAF8E294AD85AD98133FC0A8
:101CC00050C0D801DC969C91DC97DD968C91DD9715
:101CD000981709F4B4C0DC96EC91DC97F0E0E75576
:101CE000F74DF080DC968C91DC978F5FDC968C93BF
:101CF000DC97DC968C91DC978C3310F0DC961C9290
:101D0000F9821A82BE016F5F7F4FC6010E94541391
:101D1000BAE0FB1639F0EDE0FE1621F08F2D8B7F37
:101D20008B3321F481E080936A281BC0D801DC96B4
:101D30009C91DC97DD968C91981309C012C00F2EF0
:101D4000FBE4CF2EF8E2DF2EF02D09EA18E2F601CF
:101D500001900020E9F73197EB54F8427E9708F4A0
:101D6000B0CF7894EBE4F8E201900020E9F73197E6
:101D7000EB54F8427E9718F081E080936A288091B6
:101D80004A28882309F464C0F894EBE6F8E224AD0D
:101D900085AD30E090E0019628173907B1F439C0DD
:101DA000E12FF0E0E35FF74D6081C7010E947C0DF9
:101DB0001F5F10930C28F70124AD85AD30E090E053
:101DC00001962817390769F424C00F2EFBE6EF2E81
:101DD000F8E2FF2EF02D0F2EFDE0CF2EF8E2DF2EE1
:101DE000F02DD701DC968C91DC97811104C0DD9633
:101DF0008C918B3371F010910C28F601019000202A
:101E0000E9F73197ED50F842812F90E08E179F0748
:101E100038F27894EDE0F8E201900020E9F731978C
:101E2000ED50F84280910C2890E08E179F0780F0CB
:101E300010920C28EDE0F8E215AE108209C019826C
:101E40001A82BE016F5F7F4FC6010E9454136ECF8E
:101E50000F900F90DF91CF911F910F91FF90EF9016
:101E6000DF90CF9008955058BB27AA270E944B0FB0
:101E70000C94FC100E94EE1038F00E94F51020F037
:101E800039F49F3F19F426F40C94EB100EF4E0950E
:101E9000E7FB0C94E510E92F0E940D1158F3BA17D7
:101EA000620773078407950720F079F4A6F50C9470
:101EB0002F110EF4E0950B2EBA2FA02D0B01B901B6
:101EC00090010C01CA01A0011124FF27591B99F0B0
:101ED000593F50F4503E68F11A16F040A22F232FBC
:101EE000342F4427585FF3CF469537952795A7950C
:101EF000F0405395C9F77EF41F16BA0B620B730BB3
:101F0000840BBAF09150A1F0FF0FBB1F661F771F23
:101F1000881FC2F70EC0BA0F621F731F841F48F4D8
:101F2000879577956795B795F7959E3F08F0B0CF61
:101F30009395880F08F09927EE0F97958795089548
:101F40000E94C11008F481E008950E94B90F0C941A
:101F5000FC100E94F51058F00E94EE1040F029F499
:101F60005F3F29F00C94E51051110C9430110C9442
:101F7000EB100E940D1168F39923B1F3552391F3EF
:101F8000951B550BBB27AA2762177307840738F0E8
:101F90009F5F5F4F220F331F441FAA1FA9F335D045
:101FA0000E2E3AF0E0E832D091505040E695001CF9
:101FB000CAF72BD0FE2F29D0660F771F881FBB1FB3
:101FC000261737074807AB07B0E809F0BB0B802D91
:101FD000BF01FF2793585F4F3AF09E3F510578F0BD
:101FE0000C94E5100C9430115F3FE4F3983ED4F369
:101FF000869577956795B795F7959F5FC9F7880F91
:10200000911D9695879597F90895E1E0660F771FE2
:10201000881FBB1F621773078407BA0720F0621B73
:10202000730B840BBA0BEE1F88F7E09508950E949E
:10203000151188F09F5798F0B92F9927B751B0F034
:10204000E1F0660F771F881F991F1AF0BA95C9F73C
:1020500014C0B13091F00E942F11B1E008950C949A
:102060002F11672F782F8827B85F39F0B93FCCF34D
:10207000869577956795B395D9F73EF490958095B9
:10208000709561957F4F8F4F9F4F0895E89409C0D9
:1020900097FB3EF490958095709561957F4F8F4F9B
:1020A0009F4F9923A9F0F92F96E9BB279395F695B1
:1020B000879577956795B795F111F8CFFAF4BB0F2F
:1020C00011F460FF1BC06F5F7F4F8F4F9F4F16C093
:1020D000882311F096E911C0772321F09EE8872F1D
:1020E000762F05C0662371F096E8862F70E060E0D9
:1020F0002AF09A95660F771F881FDAF7880F969552
:10210000879597F90895E894F92F96EBFF2381F0CE
:10211000121613061406440B9395F695879577953A
:10212000679557954040FF23B9F71BC0992708953D
:10213000882351F49850D2F7872B762F652F542F90
:10214000432F322F20E0B1F3121613061406440B6E
:1021500088233AF09A95440F551F661F771F881FF2
:10216000CAF755234AF4440F551F11F460FF04C009
:102170006F5F7F4F8F4F9F4F880F9695879597F989
:102180000895990F0008550FAA0BE0E8FEEF161608
:102190001706E807F907C0F012161306E407F5075B
:1021A00098F0621B730B840B950B39F40A2661F0CF
:1021B000232B242B252B21F408950A2609F4A14072
:1021C000A6958FEF811D811D089597F99F6780E87F
:1021D00070E060E008959FEF80EC089500240A9479
:1021E0001616170618060906089500240A941216F2
:1021F0001306140605060895092E0394000C11F425
:10220000882352F0BB0F40F4BF2B11F460FF04C0D1
:102210006F5F7F4F8F4F9F4F089557FD9058440F2A
:10222000551F59F05F3F71F04795880F97FB991F35
:1022300061F09F3F79F087950895121613061406F2
:10224000551FF2CF4695F1DF08C01616170618067F
:10225000991FF1CF86957105610508940895E8945A
:10226000BB2766277727CB0197F908950E94C110F5
:1022700008F48FEF08950E94151158F19E5760F1F0
:102280009851A0F0E9F0983020F5092E9927660FB3
:10229000771F881F991F0A94D1F712C0062E672F47
:1022A000782F8827985F11F4000C07C0993FB4F38A
:1022B0008695779567959395D9F7611D711D811D59
:1022C0003EF490958095709561957F4F8F4F9F4F0D
:1022D000089568940C9430110C942F110E94811170
:1022E0000C94FC100E94EE1038F00E94F51020F0C3
:1022F000952311F00C94E5100C94EB1011240C9420
:1023000030110E940D1170F3959FC1F3950F50E0AD
:10231000551F629FF001729FBB27F00DB11D639F97
:10232000AA27F00DB11DAA1F649F6627B00DA11D3D
:10233000661F829F2227B00DA11D621F739FB00DE3
:10234000A11D621F839FA00D611D221F749F332753
:10235000A00D611D231F849F600D211D822F762FEC
:102360006A2F11249F5750409AF0F1F088234AF0C9
:10237000EE0FFF1FBB1F661F771F881F9150504035
:10238000A9F79E3F510580F00C94E5100C94301194
:102390005F3FE4F3983ED4F3869577956795B795BC
:1023A000F795E7959F5FC1F7FE2B880F911D9695D6
:1023B000879597F908950E941511E8F09E37E8F087
:1023C0009639B8F49E3848F4672F782F8827985F9D
:1023D000F9CF86957795679593959539D0F3B62F74
:1023E000B1706B0F711D811D20F4879577956795EE
:1023F00093950C94FF110C941A120C9430118823AD
:1024000071F4772321F09850872B762F07C066232D
:1024100011F499270DC09051862B70E060E02AF0EE
:102420009A95660F771F881FDAF7880F969587951C
:1024300097F908959F3F31F0915020F48795779553
:102440006795B795880F911D9695879597F908958B
:10245000EE0FFF1F0590F491E02D0994DF93CF93C9
:102460001F930F939A9DF02D219FF00D8B9DF00DE2
:102470008A9DE02DF10D039FF00D029FE00DF11DEF
:102480004E9DE00DF11D5E9DF00D4F9DF00D7F9373
:102490006F93BF92AF925F934F93D5010E942A131F
:1024A0008B01AC01D7010E942A13EB01E80FF91F41
:1024B000D6010E947E122F913F91D6010E942A13CD
:1024C000C60FD71FE81FF91FAF91BF910E947E1260
:1024D0002F913F910E942A13C60FD71FE81FF91FA3
:1024E000D6010E942A13E60FF71F9801BE01CF0103
:1024F00011240F911F91CF91DF9108950E942A130B
:10250000460F571FC81FD91F08F4319608956894C5
:1025100001C0E8948F929F92CF93DF930E9495120F
:10252000DF91CF919F908F90089588249924F40192
:10253000E401B0E49F93AA279A158B049C04ED054F
:10254000FE05CF05D007A10798F4AD2FDC2FCF2FC4
:10255000FE2FE92D982C892E982F872F762F652F07
:10256000542F432F322F2227B85031F7BF9127C065
:102570001B2EBF91BB27220F331F441F551F661F01
:10258000771F881F991F881C991CEE1FFF1FCC1FE7
:10259000DD1FAA1FBB1F8A149B04EC05FD05CE0599
:1025A000DF05A007B10748F08A189B08EC09FD0970
:1025B000CE09DF09A00BB10B21601A94E1F62EF4CD
:1025C0009401AF01BE01CD01000C08956095709596
:1025D0008095909530954095509521953F4F4F4F60
:1025E0005F4F6F4F7F4F8F4F9F4F08950F9308306E
:1025F00090F0982F872F762F652F542F432F322F4F
:1026000022270850F4CF220F331F441F551F661F87
:10261000771F881F991F0A95B2F70F9108952A0D09
:102620003B1D4C1D5D1D6E1D7F1D801F911F08955C
:102630002A193B094C095D096E097F09800B910B32
:1026400008952A153B054C055D056E057F0580073D
:1026500091070895A29FB001B39FC001A39F700D81
:10266000811D1124911DB29F700D811D1124911D9A
:10267000089591110C947C15803219F08950855081
:10268000C8F708956817790768F4FB01DC01E40FC7
:10269000F51FA40FB51F02C002900E92415050408A
:1026A000D8F708950C948A15FB01DC010D900020E9
:1026B000E9F7119701900D920020E1F70895FB01D1
:1026C00051915523A9F0BF01DC014D9145174111EE
:1026D000E1F759F4CD010190002049F04D914015EA
:1026E0004111C9F3FB014111EFCF81E090E0019767
:1026F0000895AEE0B0E0EFE7F3E10C9478160D89B1
:102700001E8986E08C8309831A838FEF9FE78D8370
:102710009E83AE01475E5F4F6F89788DCE01019633
:102720000E949B13EF81F885E00FF11F10822E9617
:10273000E4E00C949116ABE0B0E0E1EAF3E10C9434
:102740006A166C017B018A01FC0116821782838163
:1027500081FFCCC1CE0101963C01F6019381F701C6
:1027600093FD859193FF81917F01882309F4BAC17C
:10277000853239F493FD859193FF81917F018532F4
:1027800029F4B60190E00E949E15E7CF912C212CF0
:10279000312CFFE1F315D8F08B3279F038F4803228
:1027A00079F08332A1F4232D20611DC08D3261F0B8
:1027B000803369F4232D216016C0832D8260382E6A
:1027C000E32DE4603E2E2AC0F32DF8601DC037FCD7
:1027D0002DC020ED280F2A3040F08E32B9F436FC9F
:1027E00081C1232D2064322E19C036FE06C08AE036
:1027F000989E200D1124922E11C0EAE02E9E200DED
:102800001124222EF32DF0623F2E08C08C3621F4C5
:10281000832D8068382E02C0883641F4F70193FD7D
:10282000859193FF81917F018111B3CF982F9F7D77
:102830009554933028F40C5F1F4F9FE399830DC08C
:10284000833631F0833771F0833509F059C021C0E8
:10285000F801808189830E5F1F4F88248394912C17
:10286000530113C02801F2E04F0E511CF801A08063
:10287000B18036FE03C0692D70E002C06FEF7FEFBC
:10288000C5010E9493154C018201F32DFF773F2E65
:1028900016C0280122E0420E511CF801A080B18030
:1028A00036FE03C0692D70E002C06FEF7FEFC501F7
:1028B0000E947F154C01F32DF0683F2E820133FCFE
:1028C0001BC0822D90E088169906B0F4B60180E214
:1028D00090E00E949E152A94F4CFF50137FC859173
:1028E00037FE81915F01B60190E00E949E15211094
:1028F0002A9421E0821A91088114910471F7E8C0AA
:10290000843611F0893641F5F80137FE07C0608141
:102910007181828193810C5F1F4F08C0608171813A
:10292000072E000C880B990B0E5F1F4FF32DFF76BF
:102930003F2E97FF09C090958095709561957F4FC8
:102940008F4F9F4FF0683F2E2AE030E0A3010E9496
:10295000DA15882E861845C0853731F4232D2F7E51
:10296000B22E2AE030E025C0932D997FB92E8F3604
:10297000C1F018F4883579F0B5C0803719F0883780
:1029800021F0B0C0E92FE061BE2EB4FE0DC0FB2DDA
:10299000F460BF2E09C034FE0AC0292F2660B22E73
:1029A00006C028E030E005C020E130E002C020E1B0
:1029B00032E0F801B7FE07C06081718182819381A6
:1029C0000C5F1F4F06C06081718180E090E00E5F58
:1029D0001F4FA3010E94DA15882E8618FB2DFF7762
:1029E0003F2E36FE0DC0232D2E7FA22E891458F4C3
:1029F00034FE0BC032FC09C0832D8E7EA82E05C08C
:102A0000B82CA32C03C0B82C01C0B92CA4FE0FC055
:102A1000FE01E80DF11D8081803321F49A2D997E0D
:102A2000A92E09C0A2FE06C0B394B39404C08A2D97
:102A3000867809F0B394A3FC11C0A0FE06C0B214BE
:102A400088F4280C922C9B180EC0B21460F4B601C6
:102A500080E290E00E949E15B394F7CFB21418F470
:102A60002B1802C0982C212CA4FE10C0B60180E3C4
:102A700090E00E949E15A2FE17C0A1FC03C088E74B
:102A800090E002C088E590E0B6010CC08A2D8678FF
:102A900059F0A1FE02C08BE201C080E2A7FC8DE2EA
:102AA000B60190E00E949E15891438F4B60180E3C7
:102AB00090E00E949E159A94F7CF8A94F301E80D56
:102AC000F11D8081B60190E00E949E158110F5CF26
:102AD000222009F442CEB60180E290E00E949E15C9
:102AE0002A94F6CFF6018681978102C08FEF9FEF7F
:102AF0002B96E2E10C948316992788270895FC0110
:102B00000590615070400110D8F7809590958E0F18
:102B10009F1F0895FB01DC0102C001900D924150FE
:102B20005040D8F70895FC016150704001900110A9
:102B3000D8F7809590958E0F9F1F08950F931F9340
:102B4000CF93DF93FB01238121FD03C08FEF9FEF24
:102B50002CC022FF16C0468157812481358142173F
:102B6000530744F4A081B1819D012F5F3F4F208323
:102B700031838C93268137812F5F3F4F26833783A4
:102B800014C08B01EC01FB010084F185E02D099557
:102B9000892BE1F6D80116968D919C911797019695
:102BA00016968D939C931797CE01DF91CF911F912D
:102BB0000F910895FA01AA27283051F1203181F1AF
:102BC000E8946F936E7F6E5F7F4F8F4F9F4FAF4F35
:102BD000B1E03ED0B4E03CD0670F781F891F9A1F48
:102BE000A11D680F791F8A1F911DA11D6A0F711DFC
:102BF000811D911DA11D20D009F468943F912AE008
:102C0000269F11243019305D3193DEF6CF010895EF
:102C1000462F4770405D4193B3E00FD0C9F7F6CF20
:102C2000462F4F70405D4A3318F0495D31FD4052E8
:102C3000419302D0A9F7EACFB4E0A695979587957E
:102C400077956795BA95C9F700976105710508955D
:102C50009B01AC010A2E0694579547953795279509
:102C6000BA95C9F7620F731F841F951FA01D0895A1
:102C70000E9447168081918108950196272F0E9416
:102C80004C160C944B1603D0808199270895FC01B3
:102C9000E050FC4E0895262F0E9447160080021631
:102CA00019F00E945716019701970895262FAF93A8
:102CB000BF93E0E0F0E1328131FDFDCFDC01A050B7
:102CC000BC4E2C932DE924BF23E020830196BF91B5
:102CD000AF9108952F923F924F925F926F927F92A1
:102CE0008F929F92AF92BF92CF92DF92EF92FF921C
:102CF0000F931F93CF93DF93CDB7DEB7CA1BDB0BC8
:102D0000CDBFDEBF09942A88398848885F846E84E5
:102D10007D848C849B84AA84B984C884DF80EE80FF
:102D2000FD800C811B81AA81B981CE0FD11DCDBF41
:0A2D3000DEBFED010895F894FFCF17
:102D3A0000015369676E616C2047656E6572617444
:102D4A006F722C2044722E204D6172696F20486583
:102D5A006C6C6D6963682C2053616C7A6769747452
:102D6A0065720D0A004669726D7761726520566553
:102D7A007273696F6E2025752E25750D0A004552EE
:102D8A00522025750D0A0046525120256C75256C76
:102D9A00750D0A0046525120256C750D0A004C56D5
:102DAA004C2025640D0A005245462025750D0A005F
:102DBA005245464D554C542025750D0A004C455632
:102DCA00454C2D434F52522025640D0A0046524568
:102DDA00512D434F52522025640D0A00534C4F5037
:102DEA00452D434F52522025640D0A004652510088
:102DFA004C564C005245460052465100455252002C
:102E0A004C4352004643520053435200494E460037
:102E1A00564552005356450052434C0000879303CF
:102E2A000000000000E1F5050000000080FE210A14
:102E3A0000000000800C49110000000080CE341D03
:102E4A000000000080CB783100000000004E725371
:102E5A000000000000180D8F0000000000AC4206C0
:042E6A000100000063
:00000001FF
